:020000040000FA
:1017000001C0000013E0A2E8B3E0E2E5F5E102C0A9
:1017100005900D92A43EB107D9F723E0AEE7B2E001
:1017200001C01D92A238B207E1F7ACC30F931F931B
:1017300000917A0310917B0320917C0330917D030B
:1017400080917E0390917F03A0918003B0918103EB
:10175000081719072A073B0748F4BC01CD01601B95
:10176000710B820B930B1F910F91089560E070E055
:10177000CB01F9CF80917903982F977F90937903CC
:1017800083FB882780F90895EDE4F1E0108212AA26
:101790001092B1011092E3011092150210924702CB
:1017A00008950F931F9300917A0310917B0320916A
:1017B0007C0330917D03400F511F621F731FFC019A
:1017C00040835183628373831F910F91089540EC8E
:1017D00057E269E070E085E793E0E3CF0F931F9352
:1017E000FC0181E0008111812281338140917A03E3
:1017F00050917B0360917C0370917D030417150762
:101800002607370708F080E01F910F910895F8949C
:101810008091310190913201A0913301B091340156
:10182000789480937A0390937B03A0937C03B09386
:101830007D030895E62FF0E0EE0FFF1FE050FF4F0D
:101840009183808308950F931F93CF938C01C0E001
:101850006C2FC801EFDFCF5FC630D1F7CF911F915A
:101860000F9108958CE0E8E8F2E0A0E0B1E001908B
:101870000D928A95E1F708958CE0E0E0F1E0A8E8A8
:10188000B2E001900D928A95E1F708952BE0829FD6
:10189000C00111248A5C9C4FA1CFE82FF0E0DF014A
:1018A000A35DBC4F2C91283020F08FEF8C9380E00B
:1018B000089583E0EE0FFF1F8A95E1F7E20FF11D17
:1018C000EA55FD4F4295407F6F70642B60832F5F18
:1018D0002C9381E00895CF93C0E08C2FD7DF811146
:1018E00004C040E061E08C2FD8DFCF5FC630A9F79D
:1018F000CF910895882381F08FEF90E0603C90F4C1
:101900006034F0F0262F2054330BC90133E0959555
:1019100087953A95E1F7089580E8860F803448F47A
:101920008FEB90E0861B9109959587959595879506
:10193000089567FD05C0862F86958695869508953E
:1019400080E008950F931F93CF93DF939FEF9093C1
:101950001D0397E090938C03D2E0811101C0D1E088
:101960000EE113E0C0E0F8018081823021F44D2FB8
:101970006BE08C2F92DFCF5F0E5F1F4FC63099F761
:10198000DF91CF911F910F9108951092E50228E108
:101990003CEF829FA001839F500D11244059584E67
:1019A000052E000C660B770B86EE92E0FACE809146
:1019B000860390918703A0918803B0918903AC01BD
:1019C000BD012DE0440F551F661F771F2A95D1F7E3
:1019D00084279527A627B727AC01BD0131E176956D
:1019E0006795579547953A95D1F784279527A62768
:1019F000B727AC01BD01E5E0440F551F661F771FF7
:101A0000EA95D1F784279527A627B72780938603E1
:101A100090938703A0938803B09389030895CF938D
:101A2000DF93EC01C4DF9A8196959695937044E01C
:101A3000849F90011124391720F4892FA6DF81E0BB
:101A40008B83DF91CF910895EF92FF920F931F93B5
:101A5000CF93DF93D82FABDF90E0880F991F392FFA
:101A600020918A0360919402AEE1B3E090E0C0E07F
:101A70000D2F10E049E0D49FF0011124AF014E5F1B
:101A80005C4F7A0171E08C918230A9F4F70180817A
:101A90008370F72FF81B8F2F11964C911197840F9D
:101AA000833048F44C2F50E042585D4FFA01908348
:101AB0002917B1F0CF5F9F5F1296963021F72093E0
:101AC0008A03332311F0C11113C089E0809FF00114
:101AD000819FF00D1124EE5FFC4F87E080871BC0D3
:101AE00061112EC087E080938A0320937E02C1E0BB
:101AF0005EDF99E0909FD001919FB00D1124AE5F01
:101B0000BC4F8C9FF0011124EF2FFF27E258FD4FAF
:101B1000808118968C934BDF99E0909FF001919F04
:101B2000F00D1124EE5FFC4F26E0829FC0011124CE
:101B30009783DF91CF911F910F91FF90EF900895C0
:101B400027E0B9CF34DF2EE4829FC001112447E2A1
:101B5000490F80E8489FA0011124052E000C660B58
:101B6000770B8091990290919A02A0919B02B0917B
:101B70009C02480F591F6A1F7B1F82EA92E011CE18
:101B8000EF92FF920F931F93CF93DF93182FC2EE24
:101B9000D2E082E0E82E83E0F82E07E09881898188
:101BA000911310C040E069E0873099F408832896CB
:101BB000EC16FD0699F7DF91CF911F910F91FF90E1
:101BC000EF900895873099F31813F1CF40E069E062
:101BD000892F63DEEBCF0F931F93CF93DF93EC013D
:101BE00080910203837071F180910B03837071F116
:101BF000809114038370C9F482E022E030E099E020
:101C0000929F8001939F100D1124F801EE5FFC4F0D
:101C10009A8190839881928317DF48EB5BE060E0C4
:101C200070E0C8018B5F9C4FBCDD8A818C7F8A830A
:101C300040E069E0888131DE8881DF91CF911F919A
:101C40000F919ECF80E030E020E0D9CF81E021E00D
:101C500030E0D5CFF8DD0C94101CCF92DF92EF92DC
:101C6000FF920F931F93CF93DF930E94141C04DE07
:101C7000D8EC9FE1E92EF12C0D2F10E0802F90E0A1
:101C80000196E89E9001E99E300DF89E300D1124DA
:101C900081E0932F990F990F990FDCDF065042E0F6
:101CA00064E873E0812F0E94081C1F5F163031F733
:101CB000D452D43109F781E090E0CCDFF894C090A1
:101CC0003101D0903201E0903301F09034017894EA
:101CD00010923F0159DD81E08093410180913F01E5
:101CE00080FF4BC0F894C0923101D0923201E09253
:101CF0003301F09234010E94141C789468DD44DDB5
:101D0000D0E08FE1E82EF12C0D2F10E00A5F802F3C
:101D100090E00196E89E9001E99E300DF89E300D0E
:101D20001124832F8F71C160982F990FC17CC92B0B
:101D3000932F9295990F990F907CCF73C92B982F61
:101D4000990F990F990F86958695982B8C2F82DF86
:101D500042E062E873E0812F0E94081C1F5F16308A
:101D6000A9F6DC5DD43B81F6DF91CF911F910F91F5
:101D7000FF90EF90DF90CF9075CD80914101882347
:101D800009F4B0CFEDE4F1E080E09081992341F0D7
:101D90009481933321F49581933309F481E0108287
:101DA000F29692E0E937F90781F7882309F496CF94
:101DB00099CF84E892E012DD882341F140ED57E0AD
:101DC00060E070E084E892E0ECDC809134038064B1
:101DD0008093340380913F03806480933F0380911C
:101DE0004A03806480934A03809155038064809302
:101DF00055038091600380648093600380916B033E
:101E0000806480936B03E3DC0C94141C08950F939F
:101E10001F93CF93DF9310E000E0CDE4D1E0888101
:101E20008823E9F08B818733C9F448EC50E060E007
:101E300070E0C8018A5C9C4FB4DC40E050E0BA011D
:101E4000C801865C9C4FADDC8C8187FF13C09D81EF
:101E5000F801ED5CFC4F908386FDABDF1882E296C3
:101E6000055F1F4F02341105D1F6DF91CF911F910D
:101E70000F9108958C81853189F78D81853171F7B6
:101E8000ECDEECCFCF93DF9300D000D000D01F92D8
:101E9000CDB7DEB781E080934101B9DC98DC8EEBF1
:101EA0009AEB9093E5038093E40330E020E0E0EFC9
:101EB000F0E042EA5CE866ED72E9819190E0022E82
:101EC00002C0880F991F0A94E2F7092E000CAA0B92
:101ED000BB0B482759276A277B272D5F3F4F2B31A4
:101EE000310559F740938603509387036093880325
:101EF0007093890382E080932B0310922C0381E07E
:101F000080938B031FDE809102038C7F80930203FA
:101F100080910B038C7F80930B03809114038C7F43
:101F20008093140387E08093E2028093EA02809317
:101F3000F2028093FA028091E4039091E5038E3BD4
:101F40009A4B19F084E00E941E1C80913F0186FF8D
:101F50002DC010E0812F9ADC882341F11F5F1630DD
:101F6000C9F78ADC10E00FC081E090E06CDC01E092
:101F7000010F612F81E098EF5DDC063009F400E08D
:101F80000E94101C102F80913E01882321F0809127
:101F90003F0187FFE9CF66DC80913F0187FD05C0E7
:101FA00081E090E057DE0E94121C57DE80913F01D5
:101FB00087FD53DE2CDC80913F0180FDFADE27DFB8
:101FC000F89480913E0190913F0180917903892B93
:101FD0008093790310923F0180914001789463E3EC
:101FE000262E63E0362E86ED92E09B838A834C0199
:101FF0002101F12CE12C0E2D8E2D48DC882309F4D3
:10200000E3C2F701E35DFC4F1082D20112961C92ED
:10201000FFEFEF1AFF0A2BE0420E511C32E0830E55
:10202000911C86E0E816F10431F710929D02BEE1A2
:10203000AB2EB3E0BB2E8501D12C8D2D27DCD80132
:102040009C91882309F4EBC49923B9F0A2EEEA2EFF
:10205000A2E0FA2EF7018081873039F08D1519F052
:1020600081818D1102C08D2D8BDDF8E0EF0EF11C0A
:1020700022E0E21623E0F20669F7D8011C92D3941D
:102080000E5F1F4F36E0D312D8CF80919D0286306D
:1020900008F0D4C481E080932C0310912C0311111B
:1020A000DEC450DD02E013E0F12CE12CE9E05E2E0D
:1020B000F6E04F2ED8018C91837009F48AC568012F
:1020C000B3E0CB0ED11CC60189DB882309F481C59E
:1020D0005E9CF0015F9CF00D1124EE5FFC4F40818F
:1020E0004695469543702CE92403A0011124405ED7
:1020F0005C4F052E000C660B770BC60152DBD80136
:1021000018968C91189712962C911297873009F097
:10211000FBC417969C919213F7C48E2D95DC48EB67
:102120005BE060E070E0C6013CDB52EEE52E52E081
:10213000F52E8701D12CC12CD8018C918730D9F094
:1021400011968C918730B9F4F60143E0EE0FFF1F32
:102150004A95E1F7EC51FD4F8081837061F0C80131
:1021600004963CDB882339F0F8018381882309F445
:102170003BC5C80130DDFFEFCF1ADF0A085F1F4FF4
:1021800024E0C216D104C1F6F5DA882311F080E00C
:10219000D9DB80912A03823008F42AC582508093CB
:1021A0002A038EE793E01ADB8823E9F010E0D501DB
:1021B0008C91823041F411968C91813021F440E071
:1021C0006BE0812F6ADB1F5FB2E0AB0EB11C1630F3
:1021D00071F740E157E260E070E08EE793E0E1DA0A
:1021E000EFEFE0932A0380911D03882331F08430C0
:1021F00008F401C5845080931D033DE2C32E33E0F3
:10220000D32E8601B12CD8018D918D0181110CC086
:1022100040912C03B4E04B9FC001112440912B034B
:10222000482B60E08B2D39DBB394E6E0BE12EBCF98
:1022300023E3A22E23E0B22E10E000E0802F26DB65
:10224000811131C0D5018C91898385FB882780F964
:10225000D801AA0FBB1FFD01EA52FD4F908194FBEC
:10226000222720F982131FC094FD06C0F801E35D08
:10227000FC4F90819923B9F0AA52BD4F2C912F7E2B
:1022800080FF20612C93F80183E0EE0FFF1F8A95F9
:10229000E1F7922F907FEA55FD4F808124FFAEC475
:1022A0008F70892B8C930F5F1F4FBBE0AB0EB11C5F
:1022B0000630110519F685E793E0EA81FB8120815C
:1022C000D10112962C933296FB83EA83BBE02B0E4E
:1022D000311C8215930589F781E090E0B4DAB12CC6
:1022E000A12CE9E06E2E7A2C80912C03E82FF0E0EF
:1022F000EE0FFF1FE552FC4F00811181902E812EC1
:10230000813009F047C0F501EE0FFF1FE25EFC4F80
:102310009081923009F080E060912A03EBDA902FEF
:1023200096959F71980F903208F09FE19F71990FD9
:10233000202F217C922E992A892C8294869486942F
:1023400053E08522912F9770990F990F9829980F34
:10235000903208F09FE1292F2295220F220F207C36
:10236000E92DEF739E2E922A969596959770212FC0
:10237000287F822E892A982D969596959695890F75
:10238000803208F08FE1880F880F880FF82DF770E2
:102390008F2E882A60911D03662309F441C0909115
:1023A0008C03973009F03AC481E0A4DA992D969510
:1023B0009F71980F903208F09FE19F71990F292D1E
:1023C000217C922E992A292D2295269526952370D7
:1023D000982D9770990F990F922B980F903208F0C3
:1023E0009FE1292F2295220F220F207C392D3F7348
:1023F000932E922A969596959770A82DA87F8A2E4F
:10240000892A982D969596959695890F803208F091
:102410008FE1880F880F880FB82DB7708B2E882A10
:1024200016950795169507950E7C1973E2E0F3E073
:1024300030E020E0902F412F629ED001639EB00DCE
:102440001124AE5FBC4F8C91837029F0828187117B
:1024500002C0992E842E2F5F3F4F399623303105CD
:1024600059F7672D892D982DE5D9EFEFAE1ABE0AE1
:10247000F6E0AF16B10409F036CF10E000E0D70166
:102480006C91673009F44AC0F80133E0EE0FFF1F8A
:102490003A95E1F7EC51FD4F8081837009F4D0C388
:1024A00011968C91873009F0CBC380917A0390917B
:1024B0007B03A0917C03B0917D0325E0B695A795A1
:1024C000979587952A95D1F7282F2F718295880F98
:1024D000880F807CB92DBF739B2E982A822F8695FA
:1024E0008695822E880C880C880C882A220FE92D6C
:1024F000E17C9E2E922AD70113968C91882321F09D
:10250000B92DBF739B2E812C892D982D93D9F7015E
:102510006181673019F08FEF9FEF8CD90F5F1F4FEC
:10252000F8E0EF0EF11C0430110509F0A8CF10E01F
:10253000D6018D916D018F3F21F4612F8FE398EFCC
:1025400079D91F5F1630A1F70E94101C812C912CA5
:10255000540103E313E07801B7E0EB0EF11CC7016F
:102560003DD98823E1F0F80181818068818342E0D0
:10257000B8016F5F7F4F882D0E94081C882339F0B7
:10258000D80111968C9111978F7B11968C93B50180
:10259000A4014A565F4F6F4F7F4FC70102D9055FB5
:1025A0001F4FBFEF8B1A9B0AAB0ABB0AE6E08E16E1
:1025B0009104A104B10479F685E793E00FD988234B
:1025C00009F4B9CC4ADBB7CCF2019081998394FB32
:1025D000772470F89701220F331F3D832C83F90174
:1025E000EA52FD4F208125FB222720F9721609F4BB
:1025F0000FCD192F1F7094FF0CC0D40111961C939E
:10260000EC81FD81EA52FD4F808170FA85F980836B
:10261000FFCCF40161816C3098F7E62FF0E0EE56C4
:10262000F84F11C39E07AD07D1070C082A082A08E6
:102630002A082A082A08BF0872094609EC81FD8188
:10264000E25EFC4F812F83708083812F90E095950F
:102650008795959587958183D3CF8EE992E0BED8F3
:10266000882309F4CDCF8091990290919A02A0918C
:102670009B02B0919C02805F984DAF4FBF4F8093FB
:10268000990290939A02A0939B02B0939C0223D943
:1026900059DA48EE53E060E070E08EE992E081D8CC
:1026A000AFCFE2E0F3E0D12CC12C99E080819C9D7A
:1026B00090019D9D300D11243F832E832E5F3C4F52
:1026C0005901D9016C9066946694B62DB3706B2E47
:1026D0008370C9F4412F63E0802FDFD8F5011083A8
:1026E00002838C2DB1D92CE9362D2303A0011124AE
:1026F000405E5C4F052E000C660B770B8E819F8130
:102700008B5F9C4FCCCF8FEFC81AD80A3996A3E0C5
:10271000CA16D10459F674CFA2E0B3E0E4E080E039
:102720009C91191306C012969C911297E82F90174E
:1027300039F08F5F1996833099F7E43009F460CF50
:10274000B9E0EB9FF0011124EE5FFC4F80818C7F9C
:10275000808356CF4CEF460F212F2370C12ED12CF2
:10276000D594C794D594C79497E02223A1F0A42FC1
:10277000B0E0FD01EE0FFF1FEA0FFB1FEC0DFD1D8A
:10278000EE0FFF1FE357FC4F9081F701E153FC4F21
:10279000E90FF11D9081E2EEF2E0DF013C9130178C
:1027A00039F0373091F011965C911197501301C0B8
:1027B00081E0973051F0391739F0373031F0119608
:1027C0003C911197931301C081E0189633E0A23039
:1027D000B30721F781113CC090E080E030813730B1
:1027E00009F046C0E3E0880F991FEA95E1F7DC01A4
:1027F000AE51BD4F0C9311963C931197FC01EC51D7
:10280000FD4F80818C7F8083222379F1E42FF0E0DB
:10281000CF01880F991FE80FF91FEC0DFD1DEE0F7A
:10282000FF1FE357FC4FE081C70181539C4FE80F26
:10283000F92FF11D808111968C931197E82FF0E00C
:10284000EE0FFF1FE25EFC4F9081923029F03C9327
:1028500040E069E0802F07C0C39494E0C99EA001C6
:1028600011242150422B19D8CBCE80E06BD8C8CE92
:10287000019638968430910509F0B0CFE9CF133036
:1028800048F5113008F452C032EEC32E32E0D32E98
:10289000B12CA12CD60112969C9112972C91201349
:1028A0000EC011968C911197873009F06AC01130D3
:1028B00009F052C0937009F03CC081E043D83FEF6B
:1028C000A31AB30A88E0C80ED11C94E0A916B1047B
:1028D00009F796CE92EEC92E92E0D92EB12CA12CFA
:1028E000133009F08DCED60111968C91119780137B
:1028F00012C0E7E01196EC93F50183E0EE0FFF1FA5
:102900008A95E1F7EC51FD4F80818695869583701D
:102910003CD8C60184D8FFEFAF1ABF0A28E0C20E28
:10292000D11C34E0A316B104F1F66ACE8E2D28D95D
:1029300067CEF6018381882309F4C1CFF50123E036
:10294000EE0FFF1F2A95E1F7EC51FD4F8081869530
:10295000869583701AD8B3CF123009F0B0CF937038
:1029600039F013968C91882319F0C60134D9A7CF7A
:1029700043E069E0822F0E94CD0027E0F60120832A
:102980009ECF412F69E00E94CD0099CF1130B1F068
:10299000D8F0123009F034CEE0928A0385E992E053
:1029A0000E946E00B1E08B278093940240ED57E0C7
:1029B00060E070E085E992E00E94510000938C0392
:1029C000EFEFE0931D031CCE0E941600683E73409B
:1029D0008105910508F014CE40E050E0BA018EE781
:1029E00093E05DCEE2EEF2E030E020E080818730DF
:1029F00079F0918190130CC003E0220F331F0A95E8
:102A0000E1F7F901EE51FD4F1283412F6AE02BCF20
:102A10002F5F3F4F38962430310541F7F1CD9111AA
:102A200004C021E0F80120832ACB923009F027CBA3
:102A300080919D028F5F80939D0221CB83E08093E4
:102A40002C03EEE1F3E08181813011F482E023CBAD
:102A50003296AAE2B3E0AE17BF07A9F71ECB82EA0F
:102A600092E00E946E00882309F41CCB6BD89091F1
:102A70008B03992309F416CB80910203282F23702E
:102A800009F010CB20910B03237009F00BCB2091A0
:102A90001403237009F006CB915090938B031370AD
:102AA0008C7F812B809302030E945701B3E08B9FA0
:102AB000C001112481E0890F8370982F990F990F1D
:102AC00080910203837F892B809302030E94570128
:102AD000E6E08E9FC00111249093040380E00E94E1
:102AE000A40148EB5BE060E070E085E093E00E94C9
:102AF00051000E94EB0048EE53E060E070E08EE988
:102B000092E00E945100CECA82130FC099E09E9DB0
:102B1000F0019F9DF00D1124EE5FFC4FB7E0B087F0
:102B2000408162E00E94CD0000CBF80197818730A0
:102B300009F4892F489EC001112485559C4F820FAE
:102B4000911DDC018C91F801828372EEC72E72E038
:102B5000D72E912C812C5E9CC0015F9C900D11247E
:102B60009C012E5F3C4F3901D6019C91973039F181
:102B7000F40163E0EE0FFF1F6A95E1F7EC51FD4FA2
:102B800080818370E1F411968C918730C1F4F80153
:102B90008281981314C09081D3018C91869586957B
:102BA000F601928383700E944501D3018C918C7F42
:102BB0008C93F60142816AE080810E94CD00FFEF94
:102BC0008F1A9F0A28E0C20ED11C34E083169104AC
:102BD00059F68FEFE81AF80A075F1F4F93E0E916DE
:102BE000F10409F067CAA1CAC8010E948F01C3CAD3
:102BF00010922A03D6CA10921D03FFCA82958F70C5
:102C0000892B8C9387E0918191938150E1F7F801B2
:102C1000E35DFC4F80818150808345CBF501E1531A
:102C2000FC4F81812581971549F0981739F081E093
:102C3000921380E00E94FA008695B8CB81E0FACF2B
:102C40008FEF9FEF63CCEE0FFF1F0590F491E02D07
:102C50000994333315157B000000070107020004B7
:102C6000000200030002000400030003000300034D
:102C7000000400020004000200040000000102053C
:102C80000001010102050001020202030401020326
:102C90000303040500030404040500030405050000
:102CA0000102030405000102030405000000840082
:042CB0008000400060
:102E00000AB400FCFDCF90938900809388008AB5B6
:102E100081608ABD08959B01F894409131015091E1
:102E2000320160913301709134017894420F531F45
:102E3000611D711DFC01408351836283738308957A
:102E4000CF93C62F7AD5882349F08DE55DD58C2F99
:102E50005BD585E78C1B58D5CF9146C5CF9108959A
:102E6000CF92DF92FF920F931F93CF93DF93062FA2
:102E7000F42E152F62D58823F1F08BED45D5CF2D9B
:102E8000D12F6E0180E2C80ED11C1BEDF9908F2D61
:102E90003BD51F0DCC16DD06C9F7802F35D582ED49
:102EA000801B811B31D5DF91CF911F910F91FF9036
:102EB000DF90CF9019C5DF91CF911F910F91FF90B7
:102EC000DF90CF900895CF93DF93C0E0D1E0DE0193
:102ED000EC912E2F229526952695237011968C9194
:102EE0001197982F9770990F990F922B8695869529
:102EF0008695E695EF71F0E0EC5BF74CE491ED8799
:102F0000E92FF0E0EC5BF74CE491EE87E82FF0E07E
:102F1000EC5BF74CE491EF871296249681E0AC309D
:102F2000B807B1F6DF91CF910895E0E0F1E011929A
:102F300082E0EE37F807D8F38091310190913201A9
:102F4000A0913301B0913401805E9D4EA54FBF4FDB
:102F50008093360190933701A0933801B0933901E3
:102F6000B2CFEDE4F1E0108212AA1092B1011092FA
:102F7000E30110921502109247020895F894EEE3CF
:102F8000F1E01182148216821582128611867894DD
:102F9000089582E00895FF920F931F93CF93DF93DC
:102FA000F62E072F142FC9D4882361F087E3ACD401
:102FB000CF2DD02F112321F08991A6D41150FACF13
:102FC00093D481E0DF91CF911F910F91FF900895ED
:102FD000182FC12FDE63DF738D2F90E0A7D52FEF61
:102FE00080E792E0215080409040E1F700C000006F
:102FF000B8DF80E090E09AD52FEF80E792E0215093
:1030000080409040E1F700C00000ABDFC15021F0EC
:1030100080913F0180FFDECFC6E0C15021F080915A
:103020003F0180FF0CC080913F0180FFD2CFF89418
:1030300080E18093600088E080936000FFCF80E0B3
:1030400090E074D52FEF80E792E0215080409040CF
:10305000E1F700C0000085DF80E090E067D52FEF4A
:1030600080E792E0215080409040E1F700C00000EE
:1030700078DFD3CFCF93DF93CDB7DEB7CB5BD1096A
:103080000FB6F894DEBF0FBECDBFC555DF4F8883A6
:10309000CB5AD04069D581E08093790280E090E0FE
:1030A00045D5C555DF4F2881CB5AD0402223F9F0B2
:1030B000212C312CE0E0F0E08491280E311C319677
:1030C000E11537E1F307C1F760E177E2CE018F55F3
:1030D0009F4FA1DE4EE2C655DF4F4883CA5AD0400B
:1030E0001FE300E088EBF82E96E0B92E43C01DE404
:1030F000812E11E0912EE12CF12C12E3BE2C1E9DAD
:1031000060011F9DD00C1124F601E35BFE4F80810E
:10311000882309F4A9C083818B3009F0A5C082817E
:10312000843009F0A1C0C4019FD3882309F49CC056
:10313000F601E05BFE4F2180328001E00E0D06308B
:1031400019F400E0B5E0BB2E81E090E00B2C01C04B
:10315000880F0A94EAF7182F10951F7360E070E04B
:10316000CE018F559F4F57DEC655DF4F1882CA5A82
:10317000D040F12CCB55DF4F188219821A821B8266
:10318000C55AD040FBDECB54DF4F2882C55BD04010
:10319000CA54DF4F3882C65BD04087EC821983194E
:1031A000C954DF4F8883C75BD04053E0C755DF4F1A
:1031B0005883C95AD040C455DF4F1882CC5AD040EA
:1031C0007AEBE72E8B2D90E0E2E3E89F9001E99FF8
:1031D000300D1124A901435B5E4F3A01FA01339689
:1031E000C155DF4FF983E883CF5AD040A901405B36
:1031F0005E4FCF54DF4F59834883C15BD040FC0101
:10320000EE0FFF1FCD54DF4FF983E883C35BD0403F
:103210004F5F5F4FC854DF4F59834883C85BD0402E
:10322000E050FF4FC355DF4FF983E883CD5AD040BC
:103230002E01F1E84F0E511C9201205E3F4FC65403
:10324000DF4F39832883CA5BD040C555DF4F3881B3
:10325000CB5AD040332319F0112309F406C28091D0
:103260003F0180FF0DC001C23FEFE31AF30A42E3C2
:10327000840E911C56E0E516F10409F03FCF64CFAF
:10328000C555DF4F8881CB5AD040811198C0F301DA
:103290008081882309F493C0C155DF4FE881F9810B
:1032A000CF5AD04080818B3D09F060C0F30182810C
:1032B000833209F05BC0C301D7D2882309F456C01A
:1032C000CF54DF4FE881F981C15BD04081A18F11DC
:1032D00060C0CD54DF4FE881F981C35BD040E0503E
:1032E000FF4F818187709F2D9295990F907E892B3A
:1032F00081838F2D8370A1E0B0E0AC0FBD1FF0E2A1
:103300008F9FA00DB11D112490E2C854DF4FE881BA
:10331000F981C85BD04001900D929A95E1F7833016
:10332000A1F4BE016F5F7F4FC655DF4F8881CA5A37
:10333000D040E1D3C655DF4F2881CA5AD0402F5F15
:10334000C655DF4F2883CA5AD040F39438EBF312A6
:103350002CC0C355DF4FE881F981CD5AD040808120
:10336000806C808383E08183A12C17C0C155DF4F1F
:10337000E881F981CF5AD0408081883E51F4F30131
:103380008281823031F4C3016FD2AA24A3948111C7
:1033900001C0A12CF8EBFF120CC0111108C069EBA1
:1033A0008B2D4EDD68EBF62E07C0A12C02C058EB2A
:1033B000F52E6F2D8B2D44DDF301108201C0A12C61
:1033C000C02ED12CF2E3FC9D4001FD9D900C1124F8
:1033D000F401E35BFE4F8081882309F45CC08381A4
:1033E0008D3509F04DC08281833009F049C0CF018D
:1033F0003BD2882309F444C021E030E0002E01C014
:10340000220F0A94EAF7C455DF4F4881CC5AD040C6
:10341000422BC455DF4F4883CC5AD040F401E05BC7
:10342000FE4FE180C601880F991F57EB5E15D8F457
:10343000E9EBEE120BC020951223FC01E050FF4F88
:103440002081206C20832181276009C0FC01E0508D
:10345000FF4F2081206C20832181287F23602183DE
:103460009924939401C0912CFC01E050FF4F81817D
:1034700087709E2D9295990F907E892B818301C034
:10348000912C22E32C9DF0012D9DF00D1124E35B86
:10349000FE4F108201C0912CEF1408F03DC08E2D1C
:1034A00086958695C655DF4F3881CA5AD040831716
:1034B000B8F440E2E49EC0011124D20184199509B8
:1034C000FC01EA0FFB1FE491ED93C654DF4FE88146
:1034D000F981CA5BD040AE17BF0791F7A2010BC0BC
:1034E0008E2D837041E050E04C0F5D1FF0E28F9F06
:1034F000400D511D11246E2D802FB2DC68E770E065
:10350000CE018B559F4F87DC23E0C755DF4F2883C3
:10351000C95AD0403AEBE32EF894409131015091D2
:10352000320160913301709134017894CB55DF4FB3
:1035300088819981AA81BB81C55AD040841795079B
:10354000A607B70718F09110CCC08BC0C755DF4F46
:103550009881C95AD0409111AEC0F8944091310180
:103560005091320160913301709134017894CF55BC
:10357000DF4F88819981AA81BB81C15AD0408417CD
:103580009507A607B70748F481E090E00C2C01C02E
:10359000880F0A94EAF780951823F601EE0FFF1FB3
:1035A000E050FF4F818187708183112309F459C056
:1035B000212F30E00F5F063009F400E0C901002E32
:1035C00002C0959587950A94E2F780FFF3CF33E028
:1035D000C755DF4F3883C95AD040802FAED18823DA
:1035E000A9F08BE091D1CB54DF4F8881C55BD040EF
:1035F0008BD1CA54DF4F8881C65BD04085D1C95476
:10360000DF4F8881C75BD0407FD16ED1E02FF0E0E3
:10361000EE0FFF1FE050FF4F8181886F8183C455FB
:10362000DF4F4881CC5AD040842F90E0002E02C05A
:10363000959587950A94E2F780FD40C062E370E0BB
:10364000CE018B559F4FE7DBC755DF4F5881C95AD5
:10365000D0405150C755DF4F5883C95AD0408AEBEC
:10366000E82E31DCAA2009F4F0CD1092790286DC34
:1036700003E010E0812F61D1882329F088EE44D146
:103680008AEE42D131D11F5F1630A1F7015089F780
:1036900088EBF81216C080E090E0E0E0F0E02491C2
:1036A000820F911D3196E11527E1F207C1F7281627
:1036B000390639F408C0992089F06FCF68E770E0C7
:1036C000BFCF83E085DCC555DF4FE881CB5AD040C2
:1036D000E11102C082E001C081E084D111117DCFEF
:1036E000C0CFC755DF4FF881C95AD040FF2309F436
:1036F00034CF53CFF89404E00EBF0FEF0DBF789492
:10370000B9DC87EF84BF0FB6F894A895809160006C
:10371000886180936000109260000FBEC0E8C09383
:103720006100D1E0D09361002FEF80E792E021505B
:1037300080409040E1F700C00000F7DB85B7982F8C
:10374000916095BF826085BFC0BF84E880936400AC
:10375000809168008460809368005F9A729A589A9A
:10376000599A269A689A279A699A549A529A5E9A0E
:103770005D9A569A559AD0936E0082E080937000BD
:1037800088D084B18F6384B987B1806C87B978940D
:10379000D6D1F894C093610010926100789482D1E0
:1037A00004B601FE04C08DEF84BF81E0A3DF80E09A
:0E37B00019D180E09FDF76D181E09CDF09DC3B
:1038000031C00000FDCF0000FBCF0000F9CF000069
:10381000C2CB00001AC1000019C10000F7C10000AE
:103820007DC10000C8CF00009FC10000E7C00000BC
:10383000ACC100001AC10000ACCB0000BFCF00003B
:10384000E5C10000FFFEFDFBFAF8F5F2EEEAE6E066
:10385000DAD3CCC3BAB0A5998C7E6F5F4E3B2813E8
:103860000D09030111244DDFFC012281339690E004
:10387000215018F08191980FFBCF81E0923D09F023
:1038800080E008952E9870982F9871985C985A98B7
:1038900008958FEF87BD88BD16BC95B5906895BD1E
:1038A00095B5906495BD93EA94BD93E29093B00072
:1038B00090E89093B3008093B4001092B200E1EBD3
:1038C000F0E080818064808383B5806883BD83B5A8
:1038D000826083BD83B5816083BD82E085BD8083C6
:1038E00083B58F7783BD089580EB97E189DAEDE4A6
:1038F000F1E0118213AA1092B2011092E401109229
:1039000016021092480208950F931F93CF93DF93EE
:10391000082FC8E0D0E011E0812F802319F08CE05F
:1039200096E002C08EED9EE06BDA110F2197A1F7B1
:10393000DF91CF911F910F910895F89442E3849FF6
:10394000F0011124E35BFE4F95A5911103C091E0B6
:10395000918301C090E078949923C1F121E030E097
:10396000A90102C0440F551F8A95E2F7CA012091B0
:1039700081002111FCCF98E190938100109280008A
:10398000109285001092840021E030E0309389008D
:103990002093880093E0909380002CE036E03093F1
:1039A000890020938800B19A90916F009260909363
:1039B0006F0080938A008AB581608ABD89E1809317
:1039C000810080EB97E11CDA81E0089580E00895A2
:1039D00085EC80937A0080917A0086FDFCCF8091FF
:1039E00079000895C82FF894A0DAC093280104E064
:1039F0000EBF0FEF0DBF78940C9400001F920F9232
:103A00000FB60F9211248F939F9380918A0087B9EC
:103A100083B995E39A95F1F7000083B986B995E0EB
:103A20009A95F1F7000017B886B90AB400FC03C0F4
:103A30001092810003C08AB58E7F8ABD9F918F91BD
:103A40000F900FBE0F901F90189518951F920F9210
:103A50000FB60F9211248F9386B5809327018F9113
:103A60000F900FBE0F901F90189590E8899FF0015E
:103A70001124F89483E080935700E895789407B672
:103A800000FCFDCFF89485E080935700E89578948A
:103A900007B600FCFDCFF89481E180935700E895CC
:103AA000789408950F931F93CF93DF9310E020E055
:103AB00037E101E080E090E0E901C80FD91F8038CC
:103AC000910569F0FE0145915491F894FC010A01B9
:103AD00000935700E895112478940296EDCF812F3A
:103AE000C4DF1F5F1E3211F09E01E4CFDF91CF9142
:103AF0001F910F910895E0E0F0E091E0F894DB0170
:103B00002D913D91BD01090190935700E895112435
:103B100078943296E038F10589F7A7CF81E0809359
:103B20000C0180910C018111FCCFCDC9E0E0F1E0E6
:103B30008193919321E0EC30F207D1F7EFCF8EE63D
:103B400080937C0085EC80937A008DE58A95F1F76F
:103B500000003EDF3DDF3CDF3BDF10927A008A371A
:103B600010F082E035CA0895F894E1E3F1E0808135
:103B70009181A281B381805E9D4EA54FBF4F858309
:103B80009683A783B08778940895EEDFF89480E851
:103B90008093610081E080936100789415BC72DEAF
:103BA0001092B10014BC1092B0006B982FEF80E718
:103BB00092E0215080409040E1F700C000004F9B10
:103BC000FECF2FEF80E792E0215080409040E1F758
:103BD00000C0000080916D00806880936D0085E0DA
:103BE00083BF889580916D008F7780936D00F894E6
:103BF00050DEC4D97894A3DFF89480E88093610004
:103C00001092610078941092410108951F920F92D2
:103C10000FB60F921124EF92FF920F931F932F93E1
:103C20003F934F935F936F937F938F939F93AF9344
:103C3000BF93CF93DF93EF93FF9316B1109586B5A3
:103C400078948C5E96B59817E8F316B917B985E0A5
:103C50008A95F1F7000017B816B98091B20087FF76
:103C6000B3C0C091350180E28C0F8D3708F4A9C034
:103C70008091310190913201A0913301B0913401D2
:103C80000196A11DB11D8093310190933201A09343
:103C90003301B09334014091360150913701609166
:103CA000380170913901481759076A077B0708F4F2
:103CB0006CDF80913F0169B1562F5095551F5527F4
:103CC000551F90913E014091420120914301309156
:103CD0004401591349C04111415067FD2FC02115BE
:103CE000310529F02150310911F4109245016091FC
:103CF0004701709148016F5F7F4F70934801609357
:103D00004701613797E1790730F0806810924801E8
:103D10001092470149C0693B9BE0790710F080642D
:103D200043C0613B744008F43FC09091460191113B
:103D30003BC0826091E09093460136C02115310569
:103D400099F12150310981F590914501913011F49B
:103D5000886007C0923011F4806103C08062909344
:103D600040011092450120C041111DC090914501B4
:103D700067FD0BC081609F3F09F09F5F1092480173
:103D8000109247012AE431E007C084602115310513
:103D900009F490E0109246019093450150933E0142
:103DA00044E191E002C044E190E080933F01409300
:103DB000420130934401209343019111D5DE83EAFF
:103DC0008C0F8093350173C080912601909125015D
:103DD000C92FD0E0823009F441C028F4882351F083
:103DE0008130C9F062C0833009F445C0843009F4E1
:103DF00051C05BC047DDCC0FDD1FCC0FDD1FC050B5
:103E0000DF4F8F858F3F29F083E28093B000539A74
:103E10006B9A81E04AC06B98923081F030F499231C
:103E200059F0913081F4709A0EC0943059F040F0FE
:103E3000953049F45A9A07C02E9A05C02F9A03C0AC
:103E4000719A01C05C9ACC0FDD1FCC0FDD1FC050F2
:103E5000DF4F8F858093B40082E027C08FEF80937F
:103E6000B400CC0FDD1FCC0FDD1FC050DF4F8D85A0
:103E700087BD83E01AC053988093B0008FEF87BD51
:103E8000CC0FDD1FCC0FDD1FC050DF4F8E8588BDEE
:103E900084E00BC08FEF88BD9F5F963019F41092BD
:103EA0000C0190E09093250180E080932601C7E407
:103EB000D2E000E2F12CEE24E3949CA5802F812334
:103EC00009F43EC08DA59430D0F48823B1F192302E
:103ED00010F490E801C090E0282F2695922B80FFE7
:103EE0002BC08A81883248F48A81FE01E80FF11DD7
:103EF00093838A818F5F8A8338C01A8214C0973077
:103F0000E0F4803891F49A819923B9F0E8828B81AA
:103F10008B3049F48A81843031F4CE01A5DC8823CA
:103F200011F0FF24F39480E008C09881911105C03E
:103F300099819923C9F001C0892F8DA71CA606C0BD
:103F4000983018F49F5F9CA701C01DA6E2970695C4
:103F500081E0CB31D80709F0B0CFFF2041F080914C
:103F60007902811104C025DC1A8280E8E6CFFF9136
:103F7000EF91DF91CF91BF91AF919F918F917F9101
:103F80006F915F914F913F912F911F910F91FF90F2
:0C3F9000EF900F900FBE0F901F9018953F
:00000001FF
