:020000040000FA
:1017000001C0000014E0A4E7B3E0ECE4F1E102C0A2
:1017100005900D92A23AB107D9F723E0AEE7B2E007
:1017200001C01D92A437B207E1F790C20F931F9337
:1017300000916C0310916D0320916E0330916F0343
:101740008091700390917103A0917203B091730323
:10175000081719072A073B0748F4BC01CD01601B95
:10176000710B820B930B1F910F91089560E070E055
:10177000CB01F9CFEDE4F1E0108212AA1092B10191
:101780001092E301109215021092470208950F93F0
:101790001F9300916C0310916D0320916E033091A3
:1017A0006F03400F511F621F731FFC014083518361
:1017B000628373831F910F91089540EC57E269E0B3
:1017C00070E087E693E0E3CF0F931F93FC0181E085
:1017D000008111812281338140916C0350916D030E
:1017E00060916E0370916F03041715072607370782
:1017F00008F080E01F910F910895F89480913101D5
:1018000090913201A0913301B0913401789480938A
:101810006C0390936D03A0936E03B0936F030895D0
:1018200070E06F5F7F4F282F26952F71269FA001B4
:10183000279F500D1124452F4F71440F282F2295BB
:10184000269526952370892F8770880F880F822B05
:10185000869F9001879F300D1124232F330F330B68
:10186000522F5295550F550F507C842F816036951D
:10187000279536952795969596959695969FF0017E
:10188000979FF00D11249F2F990F990F990F277093
:10189000852B922B0895E62FF0E0EE0FFF1FE0500E
:1018A000FF4F9183808308950F931F93CF938C01F3
:1018B000C0E06C2FC801EFDFCF5FC630D1F7CF910A
:1018C0001F910F9108958CE0E2E8F2E0A0E0B1E012
:1018D00001900D928A95E1F708958CE0E0E0F1E047
:1018E000A2E8B2E001900D928A95E1F708952BE00D
:1018F000829FC0011124885D9C4F66CF90916B033D
:10190000282F2095292320936B03982381E009F445
:1019100080E00895E82FF0E0DF01A15EBC4F2C913C
:10192000283020F08FEF8C9380E0089583E0EE0F55
:10193000FF1F8A95E1F7E20FF11DE955FD4F429532
:10194000407F6F70642B60832F5F2C9381E008953C
:101950008091780390917903A0917A03B0917B03F1
:10196000AC01BD012DE0440F551F661F771F2A955E
:10197000D1F784279527A627B727AC01BD0131E110
:1019800076956795579547953A95D1F7842795278A
:10199000A627B727AC01BD01E5E0440F551F661F20
:1019A000771FEA95D1F784279527A627B727809335
:1019B000780390937903A0937A03B0937B030895FF
:1019C0001F93CF93DF93182FC3DF20E8829FC001BE
:1019D0001124C0E4C90FC095BBDF20E8829FC0017D
:1019E000112480E4890FDC2FD81B8C1708F0D0E07D
:1019F000112329F0113069F11D2FDFEF01C01FEF16
:101A0000A7DF90E0880F991F992319F08D2FDC2F05
:101A1000C82FD695D695D69580E4D89F90011124ED
:101A2000C695C695C6958C2F90E0982F8827990F5C
:101A3000990F990F822B932B169516951695212F9A
:101A400030E0220F331F822B932BDF91CF911F9118
:101A500008951C2FCD2FD1CF982F10921B031092D9
:101A60001A0380918F02873029F0891719F040E01E
:101A700069E050DF87E080938F02089515DF0C94B2
:101A8000101CCF92DF92EF92FF921F93CF93DF93C0
:101A90000E94141C22DFC8EC1C2FD0E0612F81E0D3
:101AA00098EFBEDEEBDF165042E066E773E08D2F65
:101AB0000E94081CDF5FD63089F7C452C43161F739
:101AC00081E090E0DBDFF894C0903101D0903201EA
:101AD000E0903301F0903401789410923F014ADE97
:101AE00081E08093410180913F0180FF2BC0F894F9
:101AF000C0923101D0923201E0923301F092340170
:101B00000E94141C789459DE35DEC0E01C2FD0E012
:101B10001A5F612F8FEF9FEF83DEB0DF42E064E753
:101B200073E08D2F0E94081CDF5FD63089F7CC5DF3
:101B3000C43B61F7DF91CF911F91FF90EF90DF9051
:101B4000CF90C1CE80914101882389F2EDE4F1E08C
:101B500080E09081992341F09481933321F4958121
:101B6000933309F481E01082F29692E0E937F907A5
:101B700081F7882309F4B7CFBACF8EE792E024DE4D
:101B8000882341F140ED57E060E070E08EE792E09D
:101B9000FEDD8091260380648093260380913103CB
:101BA00080648093310380913C03806480933C0384
:101BB000809147038064809347038091520380643F
:101BC0008093520380915D03806480935D03F5DD13
:101BD0000C94141C08950F931F93CF93DF9310E080
:101BE00000E0CDE4D1E088818823E9F08B81873360
:101BF000C9F448EC50E060E070E0C801885D9C4F9B
:101C0000C6DD40E050E0BA01C801845D9C4FBFDDF5
:101C10008C8187FF13C09D81F801EB5DFC4F9083A1
:101C200086FDABDF1882E296055F1F4F0234110577
:101C3000D1F6DF91CF911F910F9108958C8185315D
:101C400089F78D81853171F71CDFECCFCF93DF935E
:101C500000D000D01F92CDB7DEB781E08093410164
:101C6000CCDDABDD8EEB9AEB9093A3048093A204C2
:101C700030E020E0E0EFF0E042EA5CE866ED72E997
:101C8000819190E0022E02C0880F991F0A94E2F71A
:101C9000092E000CAA0BBB0B482759276A277B2764
:101CA0002D5F3F4F2B31310559F740937803509307
:101CB000790360937A0370937B0383E080931D0321
:101CC00085E090E090931B0380931A031092E30247
:101CD0001092E402A5EEB2E042EF52E090E080E024
:101CE000FC01EE0FFF1FE80FF91FE955FC4F608163
:101CF0009C012F5F3F4F33966F3F89F402962D93DF
:101D00004A175B0769F755E0552E8091A204909120
:101D1000A3048E3B9A4B29F084E00E941E1CC9014B
:101D2000E6CF80913F0186FF2DC010E0812FDFDDDF
:101D3000882341F11F5F1630C9F7CFDD10E00FC0D7
:101D400081E090E0B1DD01E0010F612F81E098EFCB
:101D5000A2DD063009F400E00E94101C102F8091D3
:101D60003E01882321F080913F0187FFE9CFABDD61
:101D700080913F0187FD05C081E090E07FDE0E94F9
:101D8000121C7FDE80913F0187FD7BDE36DD809176
:101D90003F0180FDF2DE1FDFF89480913E019091BB
:101DA0003F0180916B03892B80936B0310923F015D
:101DB00080914001789445E2C42E43E0D42E47ED53
:101DC00052E05B834A833A01160110E000E0802F65
:101DD0008EDD882309F4DEC0F801E15EFC4F10823D
:101DE000F10112820F5F1F4F3BE0230E311C42E0D6
:101DF000640E711C0630110551F71092A6021AE903
:101E0000A12E12E0B12E8501F12CEE24E3948F2D4A
:101E10006EDDF8019081882309F48CC1923031F491
:101E200010921B0310921A038F2D16DEF8011082F8
:101E3000F3940E5F1F4FF6E0FF12E9CF0AEF12E0B6
:101E4000F801912C808181119394359623E0E8313B
:101E5000F207C1F7E0901A03F0901B0332E0E3169B
:101E6000F10409F4ABC208F072C1E114F10409F401
:101E700099C151E0E516F10409F452C23FE1832E05
:101E800033E0932E7401712CF70181917F01811150
:101E90000CC040911E03F4E04F9FC00111244091FB
:101EA0001D03482B60E0872D35DD739426E0721208
:101EB000EBCF25E2A22E23E0B22EF12CE12C8E2DC9
:101EC00016DD811131C0F5018081898385FB88276A
:101ED00080F9D701AA0FBB1FFD01E952FD4F908188
:101EE00094FB222720F982131FC094FD06C0F7013E
:101EF000E15EFC4F90819923B9F0A952BD4F2C911E
:101F00002F7E80FF20612C93F70183E0EE0FFF1FEF
:101F10008A95E1F7922F907FE955FD4F808124FF4C
:101F2000A9C28F70892B8C93FFEFEF1AFF0A2BE069
:101F3000A20EB11C36E0E316F10409F0C0CF87E62B
:101F400093E0EA81FB812081F60122832A813B8193
:101F50002E5F3F4F3B832A833BE0C30ED11C8C1581
:101F60009D0579F781E090E09FDC80E793E02CDC31
:101F7000A0901A03B0901B03882309F4A6C2A114F1
:101F8000B10409F487C244E0A416B10409F412C3F1
:101F900040E090C2F1018081898384FB442440F8B1
:101FA0004801880C991CF401E952FD4F908195FB82
:101FB000992790F9491609F415CFF82FFF70BF2E15
:101FC000F30184FF09C0B182F401E952FD4F808121
:101FD00040FA85F9808306CF9181993011F19A30CA
:101FE00009F4A5C09111F0CF8370A82E9401265654
:101FF0003D4F7901F9018081A81649F0F2E0AF1256
:1020000006C010921B0310921A03802F25DDF701E2
:10201000A0828B2D90E095958795959587958183E6
:10202000D3CFBB2019F1F3E0BF12CECF25E030E0D3
:1020300030931B0320931A0380918F028013C4CF27
:1020400080919002982F937009F4BECFEAEFF2E0EE
:10205000F12CE12C9081992361F03FEFE31AF30A10
:10206000359646E0E416F104A9F7AECF802FF4DCF4
:10207000ABCFE0927C03582F5370A52EB82EB694A8
:10208000B6946B2D6370B62E63DC5E9C90015F9CF2
:10209000300D1124F901E650FD4FFD83EC832A2D0C
:1020A0002150330BA9016B2D6150770BB62EBB0C61
:1020B00073E0879FC0011124B90E87E0849FF0016F
:1020C000859FF00D1124E258FC4FEB0DF11D80812E
:1020D000EC81FD8180833CDCF3E08F9F5001112473
:1020E0008B2D6EDCEC81FD819283818381E08B0DF1
:1020F000833009F480E064DC5E9CF0015F9CF00DAD
:102100001124E650FD4F9483838324E030E0309324
:102110001B0320931A03109219031092180340EC2A
:1021200050E060E070E080E793E031DB4DCFB092AB
:1021300090024ACF911102C0E0827ACE923009F02B
:1021400077CE8091A6028F5F8093A60271CE65E064
:10215000E616F104F1F076E0E716F10409F4D4C0D4
:1021600083E0E816F10409F089CE88E0C7DB882314
:1021700029F041E069E08091F902CCDB82E0BEDB2E
:10218000882309F47BCE42E069E08091F902C2DB4A
:1021900075CE8091A602811171CE10921B03109210
:1021A0001A036CCEF090A602FF2009F464C086E00A
:1021B00080937D0393E09F15D0F181E09FDB80E069
:1021C000F50190819230D1F5809399028093980225
:1021D0009091980281E0E92FF0E0E857FB4F2581CC
:1021E000E22FF0E0EE0FFF1FE656FD4F3081323058
:1021F00021F48F5F922F873071F79093980290911E
:10220000990226E0280FE92FF0E0E857FB4F3181D3
:10221000E32FF0E0EE0FFF1FE656FD4F4081423006
:10222000A9F48F5F932F2813EECF3093990225E006
:1022300030E030931B0320931A0320CE8F5FF2E02F
:10224000AF0EB11C863009F0BBCFC2CF909399027C
:10225000F812EDCF81E090E090931B0380931A0376
:102260001092970210929602809198028093F90240
:102270001092F80203CE88E041DB8823C9F1911067
:102280000BC080911C038F5F873018F480931C0370
:10229000F5CD10921C03F2CD80917D038F5F8630C7
:1022A00008F080E0589EF0011124E650FD4FE081D7
:1022B000EE23A1F380937D03F0E0ED51FD4FE0812B
:1022C000E093F2028E2F90E0FC01EE0FFF1FE80F6B
:1022D000F91FE955FC4F428130E1439FA0011124D1
:1022E000052E000C660B770B83EF92E050DAC6CD1B
:1022F00082E004DB882309F4C1CD86E090E090936E
:102300001B0380931A03BACDE0917D035E9EF0011A
:102310001124E650FD4F108286E080937D033DCF6F
:1023200081E0ECDA882379F082E090E090931B035F
:1023300080931A031092F70210929702109296025D
:1023400084E0DCDA9BCD8091F802209196023091F6
:102350009702232BD9F4863F20F4865F8093F802FE
:102360008DCDE091F90290919902E91739F0F0E0F2
:10237000E857FB4F91819093F902EFCF8FEF809355
:10238000F802F0929702E092960278CD8A3010F02F
:102390008A50E4CFE091F90290919802E91739F060
:1023A000F0E0E857FB4F95819093F902F1CF10923E
:1023B000F802109297021092960260CD84E09EDAA5
:1023C0004091F702882399F163E070E070931B035A
:1023D00060931A0350E066E0559547956A95E1F7DA
:1023E0007091F802549E9001559E300D112490E09A
:1023F00080E0682FFC01E20FF31FED56FC4FE081F7
:102400007E1728F001968530910599F765E0F090E8
:10241000F9026C5F8F2D7EDAF0928F02809190022C
:102420008C7F8093900288E069DA82E08ACF809185
:10243000960290919702892B99F44B3F20F44B5FC1
:102440004093F7021BCD4F3F39F481E090E0909329
:1024500097028093960212CD8FEF8093F7020ECDF4
:10246000453010F04550ECCF442309F4A2CF109230
:10247000F70204CD82958F70892B8C9387E0918130
:1024800091938150E1F7F701E15EFC4F808181502B
:1024900080834ACD80911903811186C080911803F1
:1024A0008F5F80931803863008F482C081E08093A8
:1024B00019034DE760E1469FA0011124052E000C91
:1024C000660B770B80E793E062D9E0911C03F0E0A4
:1024D000EE0FFF1FEC56FB4FE080F180C701969591
:1024E00087958E7D9B776701CC0CDD1C970122645C
:1024F0003860C22AD32A72E0A716B10409F43BC19E
:1025000008F074C0A114B10409F47EC0AA94AB28E9
:1025100009F417C110E0F40181914F018F3F21F4BC
:10252000612F8FE398EFB7D91F5F1630A1F70E9494
:10253000101C812C912C540105E213E07801F7E086
:10254000EF0EF11CC70140D98823C9F0F801818141
:102550008068818342E0B8016F5F7F4F882D0E94C1
:10256000081C882321F0F80181818F7B8183B501CC
:10257000A4014A565F4F6F4F7F4FC70108D9055FCF
:102580001F4FFFEF8F1A9F0AAF0ABF0A26E082167D
:102590009104A104B10491F687E693E015D988234C
:1025A00009F4B3CB6EDAB1CB109219031092180371
:1025B0004CE080CF80911903882321F0813049F4C9
:1025C00070907C03909118039F5F971548F4909347
:1025D0001803E0911903F0E0EB57FB4F40816ACFFD
:1025E000109218038F5F80931903F3CF24E0A21693
:1025F000B10409F4E9C008F4A4C045E0A416B1048C
:1026000009F088CF51D986CF70907D0356E07512BE
:102610001AC04AD980911903811106C0609118032C
:10262000663010F4C70137D9F12CF8018081882376
:1026300019F06F2DC6012FD9F3940B5F1F4FF6E0F1
:10264000FF12F3CF67CF25E0271518F48FEF9FEF28
:10265000D9CF83EF92E0B8D8882399F18091F20224
:102660008F5F8093F20290E0FC01EE0FFF1FE80FF6
:10267000F91FE955FC4F80818F3F61F4579CF001B1
:102680001124E650FD4FE081F0E0ED51FD4F8081D7
:102690008093F202E091F2028E2F90E0FC01EE0FA7
:1026A000FF1FE80FF91FE955FC4F428130E1439FBE
:1026B000A0011124052E000C660B770B83EF92E02E
:1026C00066D8E091F2028E2F90E0FC01EE0FFF1F22
:1026D000E80FF91FE955FC4FC080A180F12CE12CD7
:1026E000D12CB12C579C8001112406501D4F38016C
:1026F00043E0640E711C0F5F1F4F6E2D81E090E070
:10270000CAD8C6010E2C02C0959587950A94E2F7A7
:102710006E2DF80180FD0AC0C5010E2C02C09595F2
:1027200087950A94E2F780FF04C0F30180819181CC
:10273000B2D8FFEFEF1AFF0A26E0E216F104E9F63D
:10274000E9CED090F9020D2D10E008571B4FF8018B
:102750006381C701A0D88091F802F80187FD09C004
:10276000658180E294E897D86D2D8FEF9FEF93D825
:10277000D1CE6181F6CFD090F9026D2D8FEF9FEF12
:102780008AD80D2D10E008571B4FF801C3806C2D1F
:10279000C70181D88091F702803410F46C2D08C0F5
:1027A00087FD08C0F8016281C70175D8F80164810E
:1027B000C701DDCF6D2D803CD8F7F8016181C701DD
:1027C0006AD8F8016581F4CF80911903813021F135
:1027D00000F1823009F09ECED12CF801808188234F
:1027E00029F060ECC7011CD86D2D55D8D3940B5F30
:1027F0001F4FF6E0DF12F1CF0E941600693F71050E
:1028000081059105F8F0685FC7010AD860917C03E3
:10281000AECF60911803CCCFD12CC0901803F80133
:102820008081882341F0DC1430F460ECC7010E9401
:1028300090006D2D30D8D3940B5F1F4FF6E0DF1260
:10284000ECCFACCF28EF261B622FDECF333315152C
:102850007B000000060601010404020305040506CE
:1028600007080C0E07090A0B0D0C0EFFFFFFFFFFF8
:102870004040C0C0FF4040C0C0FF2060A0E0FF015A
:102880000405010805011005010805FF00000114F9
:102890000A01080AFF0000010C0A01180AFF0000E3
:1028A00003080A03100AFF000003300A031005039F
:1028B000180A030805030C0A03080503180A031085
:1028C00005FF000003240503180AFF0000030C0A9B
:1028D00003380503300A031C05FF00000304050349
:1028E0000805031005032005FF000007100A072054
:1028F0000A07100A07080AFF000007300507180535
:10290000FF00000F006409060A06090A06300AFFE4
:1029100000000205320A050A0A04320A140A0814E1
:102920003228140A28103228110A20113222110AE2
:1029300022013222050AFF00000900640936C8FF9F
:1029400000000100C80201020502020A0502150A80
:102950001E0A0502050202020102FF00000C0C1F04
:102960000001020304050001020304052801007EA2
:0A29700038059C063658C4251AB03D
:102E00000AB400FCFDCF90938900809388008AB5B6
:102E100081608ABD08959B01F894409131015091E1
:102E2000320160913301709134017894420F531F45
:102E3000611D711DFC01408351836283738308957A
:102E4000CF93C62F7AD5882349F08DE55DD58C2F99
:102E50005BD585E78C1B58D5CF9146C5CF9108959A
:102E6000CF92DF92FF920F931F93CF93DF93062FA2
:102E7000F42E152F62D58823F1F08BED45D5CF2D9B
:102E8000D12F6E0180E2C80ED11C1BEDF9908F2D61
:102E90003BD51F0DCC16DD06C9F7802F35D582ED49
:102EA000801B811B31D5DF91CF911F910F91FF9036
:102EB000DF90CF9019C5DF91CF911F910F91FF90B7
:102EC000DF90CF900895CF93DF93C0E0D1E0DE0193
:102ED000EC912E2F229526952695237011968C9194
:102EE0001197982F9770990F990F922B8695869529
:102EF0008695E695EF71F0E0EC5BF74CE491ED8799
:102F0000E92FF0E0EC5BF74CE491EE87E82FF0E07E
:102F1000EC5BF74CE491EF871296249681E0AC309D
:102F2000B807B1F6DF91CF910895E0E0F1E011929A
:102F300082E0EE37F807D8F38091310190913201A9
:102F4000A0913301B0913401805E9D4EA54FBF4FDB
:102F50008093360190933701A0933801B0933901E3
:102F6000B2CFEDE4F1E0108212AA1092B1011092FA
:102F7000E30110921502109247020895F894EEE3CF
:102F8000F1E01182148216821582128611867894DD
:102F9000089582E00895FF920F931F93CF93DF93DC
:102FA000F62E072F142FC9D4882361F087E3ACD401
:102FB000CF2DD02F112321F08991A6D41150FACF13
:102FC00093D481E0DF91CF911F910F91FF900895ED
:102FD000182FC12FDE63DF738D2F90E0A7D52FEF61
:102FE00080E792E0215080409040E1F700C000006F
:102FF000B8DF80E090E09AD52FEF80E792E0215093
:1030000080409040E1F700C00000ABDFC15021F0EC
:1030100080913F0180FFDECFC6E0C15021F080915A
:103020003F0180FF0CC080913F0180FFD2CFF89418
:1030300080E18093600088E080936000FFCF80E0B3
:1030400090E074D52FEF80E792E0215080409040CF
:10305000E1F700C0000085DF80E090E067D52FEF4A
:1030600080E792E0215080409040E1F700C00000EE
:1030700078DFD3CFCF93DF93CDB7DEB7CB5BD1096A
:103080000FB6F894DEBF0FBECDBFC555DF4F8883A6
:10309000CB5AD04069D581E08093790280E090E0FE
:1030A00045D5C555DF4F2881CB5AD0402223F9F0B2
:1030B000212C312CE0E0F0E08491280E311C319677
:1030C000E11537E1F307C1F760E177E2CE018F55F3
:1030D0009F4FA1DE4EE2C655DF4F4883CA5AD0400B
:1030E0001FE300E088EBF82E96E0B92E43C01DE404
:1030F000812E11E0912EE12CF12C12E3BE2C1E9DAD
:1031000060011F9DD00C1124F601E35BFE4F80810E
:10311000882309F4A9C083818B3009F0A5C082817E
:10312000843009F0A1C0C4019FD3882309F49CC056
:10313000F601E05BFE4F2180328001E00E0D06308B
:1031400019F400E0B5E0BB2E81E090E00B2C01C04B
:10315000880F0A94EAF7182F10951F7360E070E04B
:10316000CE018F559F4F57DEC655DF4F1882CA5A82
:10317000D040F12CCB55DF4F188219821A821B8266
:10318000C55AD040FBDECB54DF4F2882C55BD04010
:10319000CA54DF4F3882C65BD04087EC821983194E
:1031A000C954DF4F8883C75BD04053E0C755DF4F1A
:1031B0005883C95AD040C455DF4F1882CC5AD040EA
:1031C0007AEBE72E8B2D90E0E2E3E89F9001E99FF8
:1031D000300D1124A901435B5E4F3A01FA01339689
:1031E000C155DF4FF983E883CF5AD040A901405B36
:1031F0005E4FCF54DF4F59834883C15BD040FC0101
:10320000EE0FFF1FCD54DF4FF983E883C35BD0403F
:103210004F5F5F4FC854DF4F59834883C85BD0402E
:10322000E050FF4FC355DF4FF983E883CD5AD040BC
:103230002E01F1E84F0E511C9201205E3F4FC65403
:10324000DF4F39832883CA5BD040C555DF4F3881B3
:10325000CB5AD040332319F0112309F406C28091D0
:103260003F0180FF0DC001C23FEFE31AF30A42E3C2
:10327000840E911C56E0E516F10409F03FCF64CFAF
:10328000C555DF4F8881CB5AD040811198C0F301DA
:103290008081882309F493C0C155DF4FE881F9810B
:1032A000CF5AD04080818B3D09F060C0F30182810C
:1032B000833209F05BC0C301D7D2882309F456C01A
:1032C000CF54DF4FE881F981C15BD04081A18F11DC
:1032D00060C0CD54DF4FE881F981C35BD040E0503E
:1032E000FF4F818187709F2D9295990F907E892B3A
:1032F00081838F2D8370A1E0B0E0AC0FBD1FF0E2A1
:103300008F9FA00DB11D112490E2C854DF4FE881BA
:10331000F981C85BD04001900D929A95E1F7833016
:10332000A1F4BE016F5F7F4FC655DF4F8881CA5A37
:10333000D040E1D3C655DF4F2881CA5AD0402F5F15
:10334000C655DF4F2883CA5AD040F39438EBF312A6
:103350002CC0C355DF4FE881F981CD5AD040808120
:10336000806C808383E08183A12C17C0C155DF4F1F
:10337000E881F981CF5AD0408081883E51F4F30131
:103380008281823031F4C3016FD2AA24A3948111C7
:1033900001C0A12CF8EBFF120CC0111108C069EBA1
:1033A0008B2D4EDD68EBF62E07C0A12C02C058EB2A
:1033B000F52E6F2D8B2D44DDF301108201C0A12C61
:1033C000C02ED12CF2E3FC9D4001FD9D900C1124F8
:1033D000F401E35BFE4F8081882309F45CC08381A4
:1033E0008D3509F04DC08281833009F049C0CF018D
:1033F0003BD2882309F444C021E030E0002E01C014
:10340000220F0A94EAF7C455DF4F4881CC5AD040C6
:10341000422BC455DF4F4883CC5AD040F401E05BC7
:10342000FE4FE180C601880F991F57EB5E15D8F457
:10343000E9EBEE120BC020951223FC01E050FF4F88
:103440002081206C20832181276009C0FC01E0508D
:10345000FF4F2081206C20832181287F23602183DE
:103460009924939401C0912CFC01E050FF4F81817D
:1034700087709E2D9295990F907E892B818301C034
:10348000912C22E32C9DF0012D9DF00D1124E35B86
:10349000FE4F108201C0912CEF1408F03DC08E2D1C
:1034A00086958695C655DF4F3881CA5AD040831716
:1034B000B8F440E2E49EC0011124D20184199509B8
:1034C000FC01EA0FFB1FE491ED93C654DF4FE88146
:1034D000F981CA5BD040AE17BF0791F7A2010BC0BC
:1034E0008E2D837041E050E04C0F5D1FF0E28F9F06
:1034F000400D511D11246E2D802FB2DC68E770E065
:10350000CE018B559F4F87DC23E0C755DF4F2883C3
:10351000C95AD0403AEBE32EF894409131015091D2
:10352000320160913301709134017894CB55DF4FB3
:1035300088819981AA81BB81C55AD040841795079B
:10354000A607B70718F09110CCC08BC0C755DF4F46
:103550009881C95AD0409111AEC0F8944091310180
:103560005091320160913301709134017894CF55BC
:10357000DF4F88819981AA81BB81C15AD0408417CD
:103580009507A607B70748F481E090E00C2C01C02E
:10359000880F0A94EAF780951823F601EE0FFF1FB3
:1035A000E050FF4F818187708183112309F459C056
:1035B000212F30E00F5F063009F400E0C901002E32
:1035C00002C0959587950A94E2F780FFF3CF33E028
:1035D000C755DF4F3883C95AD040802FAED18823DA
:1035E000A9F08BE091D1CB54DF4F8881C55BD040EF
:1035F0008BD1CA54DF4F8881C65BD04085D1C95476
:10360000DF4F8881C75BD0407FD16ED1E02FF0E0E3
:10361000EE0FFF1FE050FF4F8181886F8183C455FB
:10362000DF4F4881CC5AD040842F90E0002E02C05A
:10363000959587950A94E2F780FD40C062E370E0BB
:10364000CE018B559F4FE7DBC755DF4F5881C95AD5
:10365000D0405150C755DF4F5883C95AD0408AEBEC
:10366000E82E31DCAA2009F4F0CD1092790286DC34
:1036700003E010E0812F61D1882329F088EE44D146
:103680008AEE42D131D11F5F1630A1F7015089F780
:1036900088EBF81216C080E090E0E0E0F0E02491C2
:1036A000820F911D3196E11527E1F207C1F7281627
:1036B000390639F408C0992089F06FCF68E770E0C7
:1036C000BFCF83E085DCC555DF4FE881CB5AD040C2
:1036D000E11102C082E001C081E084D111117DCFEF
:1036E000C0CFC755DF4FF881C95AD040FF2309F436
:1036F00034CF53CFF89404E00EBF0FEF0DBF789492
:10370000B9DC87EF84BF0FB6F894A895809160006C
:10371000886180936000109260000FBEC0E8C09383
:103720006100D1E0D09361002FEF80E792E021505B
:1037300080409040E1F700C00000F7DB85B7982F8C
:10374000916095BF826085BFC0BF84E880936400AC
:10375000809168008460809368005F9A729A589A9A
:10376000599A269A689A279A699A549A529A5E9A0E
:103770005D9A569A559AD0936E0082E080937000BD
:1037800088D084B18F6384B987B1806C87B978940D
:10379000D6D1F894C093610010926100789482D1E0
:1037A00004B601FE04C08DEF84BF81E0A3DF80E09A
:0E37B00019D180E09FDF76D181E09CDF09DC3B
:1038000031C00000FDCF0000FBCF0000F9CF000069
:10381000C2CB00001AC1000019C10000F7C10000AE
:103820007DC10000C8CF00009FC10000E7C00000BC
:10383000ACC100001AC10000ACCB0000BFCF00003B
:10384000E5C10000FFFEFDFBFAF8F5F2EEEAE6E066
:10385000DAD3CCC3BAB0A5998C7E6F5F4E3B2813E8
:103860000D09030111244DDFFC012281339690E004
:10387000215018F08191980FFBCF81E0923D09F023
:1038800080E008952E9870982F9871985C985A98B7
:1038900008958FEF87BD88BD16BC95B5906895BD1E
:1038A00095B5906495BD93EA94BD93E29093B00072
:1038B00090E89093B3008093B4001092B200E1EBD3
:1038C000F0E080818064808383B5806883BD83B5A8
:1038D000826083BD83B5816083BD82E085BD8083C6
:1038E00083B58F7783BD089580EB97E189DAEDE4A6
:1038F000F1E0118213AA1092B2011092E401109229
:1039000016021092480208950F931F93CF93DF93EE
:10391000082FC8E0D0E011E0812F802319F08CE05F
:1039200096E002C08EED9EE06BDA110F2197A1F7B1
:10393000DF91CF911F910F910895F89442E3849FF6
:10394000F0011124E35BFE4F95A5911103C091E0B6
:10395000918301C090E078949923C1F121E030E097
:10396000A90102C0440F551F8A95E2F7CA012091B0
:1039700081002111FCCF98E190938100109280008A
:10398000109285001092840021E030E0309389008D
:103990002093880093E0909380002CE036E03093F1
:1039A000890020938800B19A90916F009260909363
:1039B0006F0080938A008AB581608ABD89E1809317
:1039C000810080EB97E11CDA81E0089580E00895A2
:1039D00085EC80937A0080917A0086FDFCCF8091FF
:1039E00079000895C82FF894A0DAC093280104E064
:1039F0000EBF0FEF0DBF78940C9400001F920F9232
:103A00000FB60F9211248F939F9380918A0087B9EC
:103A100083B995E39A95F1F7000083B986B995E0EB
:103A20009A95F1F7000017B886B90AB400FC03C0F4
:103A30001092810003C08AB58E7F8ABD9F918F91BD
:103A40000F900FBE0F901F90189518951F920F9210
:103A50000FB60F9211248F9386B5809327018F9113
:103A60000F900FBE0F901F90189590E8899FF0015E
:103A70001124F89483E080935700E895789407B672
:103A800000FCFDCFF89485E080935700E89578948A
:103A900007B600FCFDCFF89481E180935700E895CC
:103AA000789408950F931F93CF93DF9310E020E055
:103AB00037E101E080E090E0E901C80FD91F8038CC
:103AC000910569F0FE0145915491F894FC010A01B9
:103AD00000935700E895112478940296EDCF812F3A
:103AE000C4DF1F5F1E3211F09E01E4CFDF91CF9142
:103AF0001F910F910895E0E0F0E091E0F894DB0170
:103B00002D913D91BD01090190935700E895112435
:103B100078943296E038F10589F7A7CF81E0809359
:103B20000C0180910C018111FCCFCDC9E0E0F1E0E6
:103B30008193919321E0EC30F207D1F7EFCF8EE63D
:103B400080937C0085EC80937A008DE58A95F1F76F
:103B500000003EDF3DDF3CDF3BDF10927A008A371A
:103B600010F082E035CA0895F894E1E3F1E0808135
:103B70009181A281B381805E9D4EA54FBF4F858309
:103B80009683A783B08778940895EEDFF89480E851
:103B90008093610081E080936100789415BC72DEAF
:103BA0001092B10014BC1092B0006B982FEF80E718
:103BB00092E0215080409040E1F700C000004F9B10
:103BC000FECF2FEF80E792E0215080409040E1F758
:103BD00000C0000080916D00806880936D0085E0DA
:103BE00083BF889580916D008F7780936D00F894E6
:103BF00050DEC4D97894A3DFF89480E88093610004
:103C00001092610078941092410108951F920F92D2
:103C10000FB60F921124EF92FF920F931F932F93E1
:103C20003F934F935F936F937F938F939F93AF9344
:103C3000BF93CF93DF93EF93FF9316B1109586B5A3
:103C400078948C5E96B59817E8F316B917B985E0A5
:103C50008A95F1F7000017B816B98091B20087FF76
:103C6000B3C0C091350180E28C0F8D3708F4A9C034
:103C70008091310190913201A0913301B0913401D2
:103C80000196A11DB11D8093310190933201A09343
:103C90003301B09334014091360150913701609166
:103CA000380170913901481759076A077B0708F4F2
:103CB0006CDF80913F0169B1562F5095551F5527F4
:103CC000551F90913E014091420120914301309156
:103CD0004401591349C04111415067FD2FC02115BE
:103CE000310529F02150310911F4109245016091FC
:103CF0004701709148016F5F7F4F70934801609357
:103D00004701613797E1790730F0806810924801E8
:103D10001092470149C0693B9BE0790710F080642D
:103D200043C0613B744008F43FC09091460191113B
:103D30003BC0826091E09093460136C02115310569
:103D400099F12150310981F590914501913011F49B
:103D5000886007C0923011F4806103C08062909344
:103D600040011092450120C041111DC090914501B4
:103D700067FD0BC081609F3F09F09F5F1092480173
:103D8000109247012AE431E007C084602115310513
:103D900009F490E0109246019093450150933E0142
:103DA00044E191E002C044E190E080933F01409300
:103DB000420130934401209343019111D5DE83EAFF
:103DC0008C0F8093350173C080912601909125015D
:103DD000C92FD0E0823009F441C028F4882351F083
:103DE0008130C9F062C0833009F445C0843009F4E1
:103DF00051C05BC047DDCC0FDD1FCC0FDD1FC050B5
:103E0000DF4F8F858F3F29F083E28093B000539A74
:103E10006B9A81E04AC06B98923081F030F499231C
:103E200059F0913081F4709A0EC0943059F040F0FE
:103E3000953049F45A9A07C02E9A05C02F9A03C0AC
:103E4000719A01C05C9ACC0FDD1FCC0FDD1FC050F2
:103E5000DF4F8F858093B40082E027C08FEF80937F
:103E6000B400CC0FDD1FCC0FDD1FC050DF4F8D85A0
:103E700087BD83E01AC053988093B0008FEF87BD51
:103E8000CC0FDD1FCC0FDD1FC050DF4F8E8588BDEE
:103E900084E00BC08FEF88BD9F5F963019F41092BD
:103EA0000C0190E09093250180E080932601C7E407
:103EB000D2E000E2F12CEE24E3949CA5802F812334
:103EC00009F43EC08DA59430D0F48823B1F192302E
:103ED00010F490E801C090E0282F2695922B80FFE7
:103EE0002BC08A81883248F48A81FE01E80FF11DD7
:103EF00093838A818F5F8A8338C01A8214C0973077
:103F0000E0F4803891F49A819923B9F0E8828B81AA
:103F10008B3049F48A81843031F4CE01A5DC8823CA
:103F200011F0FF24F39480E008C09881911105C03E
:103F300099819923C9F001C0892F8DA71CA606C0BD
:103F4000983018F49F5F9CA701C01DA6E2970695C4
:103F500081E0CB31D80709F0B0CFFF2041F080914C
:103F60007902811104C025DC1A8280E8E6CFFF9136
:103F7000EF91DF91CF91BF91AF919F918F917F9101
:103F80006F915F914F913F912F911F910F91FF90F2
:0C3F9000EF900F900FBE0F901F9018953F
:00000001FF
